:100000000C9475000C9492000C9492000C94920045
:100010000C9492000C9492000C9492000C94920018
:100020000C9492000C9492000C9492000C94920008
:100030000C9492000C9492000C9492000C949200F8
:100040000C9492000C9492000C9492000C949200E8
:100050000C9492000C9492000C9492000C949200D8
:100060000C9492000C94920007634236B79BD8A779
:100070001A39685618AEBAAB558C1D3CB7CC5763CD
:10008000BD6DEDFD753EF6177231BF000000803F7B
:1000900008000000BE922449123EABAAAA2ABECD97
:1000A000CCCC4C3E00000080BEABAAAAAA3E000009
:1000B0000000BF000000803F000000000008417801
:1000C000D3BB4387D1133D190E3CC3BD4282AD2B38
:1000D0003E68EC8276BED98FE1A93E4C80EFFFBE30
:1000E00001C4FF7F3F000000000011241FBECFEFBE
:1000F000D4E0DEBFCDBF11E0A0E0B1E0E6E3F8E17F
:1001000002C005900D92A037B107D9F721E0A0E712
:10011000B1E001C01D92AC38B207E1F70E94D804EB
:100120000C94190C0C940000CF93C82F8A3019F44A
:100130008DE00E9494008091C00085FFFCCFC093A9
:10014000C60080E090E0CF9108951092C50089E14B
:100150008093C400E1ECF0E0808180618083808145
:1001600088608083E2ECF0E080818660808380E0BC
:1001700091E0909389018093880108959091C00047
:1001800095FFFCCF8093C6000895CF93DF93EC01D9
:100190008991882319F00E94BE00FACFDF91CF9198
:1001A00008951092B90080E28093B800089584EA1F
:1001B0008093BC00089584E98093BC0080E0909116
:1001C000BC0094FF08C08A3541F092E09A95F1F79F
:1001D00000C08F5FF4CF8A3531F482E08A95F1F761
:1001E00000C084E6089580E008958093BB0084E811
:1001F0008093BC00089584EC8093BC00089584E84B
:100200008093BC00089580E09091BC0097FD08C0E9
:100210008A3541F092E09A95F1F700C08F5FF4CFF4
:100220008A3531F482E08A95F1F700C084E60895BA
:1002300080E008958091BB0008952091B900287F47
:1002400030E090E02817390711F480E008958AE043
:100250000895EF92FF920F931F93CF93DF93182F80
:10026000EB010E94D7000E9403018883811104C022
:1002700088E00E941D0188838881811106C08EEE6E
:100280000E94F5000E94030188838881811104C0C7
:1002900088E10E941D0188838881811106C0812F19
:1002A0000E94F5000E94030188838881811104C0A7
:1002B00088E20E941D0188838881811105C00E9407
:1002C000D7000E94030188838881811104C080E1E6
:1002D0000E941D0188838881811106C08FEE0E94D3
:1002E000F5000E94030188838881811104C080E4A5
:1002F0000E941D0188838881811105C00E94FB0036
:100300000E94030188838881811108C00E941A011C
:10031000E82EF12C0E940301888302C0E12CF12C0D
:100320008881811104C080E50E941D018883888135
:10033000811105C00E94FF000E940301888388810B
:10034000811108C00E941A01082F10E00E940301C9
:10035000888302C000E010E08881811104C088E534
:100360000E941D0188838881811103C00E94DB00E7
:1003700088839E2D8827800F911FDF91CF911F9139
:100380000F91FF90EF900895CF93DF93EC01888158
:10039000811108C0BE018AEA0E942901909371016F
:1003A000809370018881811108C0BE018CEA0E948F
:1003B000290190937301809372018881811108C093
:1003C000BE018EEA0E942901909375018093740109
:1003D0008881811108C0BE0180EB0E9429019093A1
:1003E0008101809380018881811108C0BE0182EB68
:1003F0000E94290190938301809382018881811159
:1004000008C0BE0184EB0E9429019093850180936E
:1004100084018881811108C0BE0186EB0E942901F8
:1004200090937701809376018881811108C0BE0185
:1004300088EB0E942901909379018093780188814B
:10044000811108C0BE018AEB0E94290190937B01B3
:1004500080937A018881811108C0BE018CEB0E94D3
:10046000290190937D0180937C018881811108C0CE
:10047000BE018EEB0E94290190937F0180937E0143
:10048000DF91CF910895CF93DF93EC010E94D700C5
:100490000E9403018883811104C088E00E941D012D
:1004A00088838881811106C08EEE0E94F5000E942B
:1004B000030188838881811104C088E10E941D01A5
:1004C00088838881811106C084EF0E94F5000E9414
:1004D000030188838881811104C088E20E941D0184
:1004E00088838881811106C08EE20E94F5000E94F7
:1004F000030188838881811104C088E20E941D0164
:1005000088838881811103C00E94DB0088838FE08B
:1005100097E20197F1F700C000008881811108C0BF
:10052000BE0186EF0E942901BC0180E090E003C07B
:1005300060E070E0CB01DF91CF910895CF93DF931E
:10054000EC010E94D7000E9403018883811104C03E
:1005500088E00E941D0188838881811106C08EEE8B
:100560000E94F5000E94030188838881811104C0E4
:1005700088E10E941D0188838881811106C084EF73
:100580000E94F5000E94030188838881811104C0C4
:1005900088E20E941D0188838881811106C084EF52
:1005A0000E94F5000E94030188838881811104C0A4
:1005B00088E20E941D0188838881811103C00E9406
:1005C000DB0088838FE19BEC0197F1F700C000000E
:1005D000888181110FC0BE0186EF0E942901BC01F4
:1005E00080E090E023E0660F771F881F991F2A950F
:1005F000D1F703C060E070E0CB01DF91CF910895A7
:100600002F923F924F925F926F927F928F929F9222
:10061000AF92BF92CF92DF92EF92FF920F931F9310
:10062000CF93DF93CDB7DEB764970FB6F894DEBFF4
:100630000FBECDBF988B8F877A8B698B80917001AD
:10064000909171019A8789870091720110917301CD
:10065000A0917401B0917501BA83A983E0918001E2
:10066000F0918101FC87EB87C0908201D0908301DB
:10067000A0908401B09085018091760190917701DE
:100680009E878D872090780130907901E0907C01E1
:10069000F0907D0180907E0190907F01DA018C9135
:1006A00081110AC0CA014B8B5C8B0E9443022B0153
:1006B0003C014B895C8903C0412C512C3201FA0169
:1006C0008081811108C0CA010E949E026D837E83D1
:1006D0008F83988704C01D821E821F821886A30103
:1006E00092012A193B0941095109D6010E94A50529
:1006F0002B013C01FFE07594679457944794FA9559
:10070000D1F7B701882777FD8095982FABE0660F6A
:10071000771F881F991FAA95D1F79401442737FDA9
:100720004095542F240D351D461D571D0E948605EA
:10073000240D351D461D571DDA01C9010896A11D5E
:10074000B11D64E0B595A795979587956A95D1F702
:10075000EF85F88980839183A283B38329013A01CD
:10076000F0EA4F1AFFE05F0A61087108A3019201E5
:10077000C301B2010E9454056B017C017CE0F59439
:10078000E794D794C7947A95D1F7A981BA810E944A
:10079000B0054B015C01EDE0B594A7949794879464
:1007A000EA95D1F7AD85BE85A70196010E94B005F7
:1007B000BB2797FDB095AB2F880E991EAA1EBB1EB6
:1007C00082E0880E911CA11CB11CA2E0B594A794F4
:1007D00097948794AA95D1F790E8990EA11CB11C23
:1007E000AB85BC85A50194010E94A505DC01CB0168
:1007F0002FE0B695A795979587952A95D1F7898388
:100800009A83AB83BC83A985BA854D01AA2497FC42
:10081000A094BA2C32E0880C991CAA1CBB1C3A95F7
:10082000D1F7D101A70196010E94B0056B017C01AF
:100830004BE0F594E794D794C7944A95D1F7D80143
:10084000A30192010E94B0055BE09595879577958D
:1008500067955A95D1F7C60ED71EE81EF91E8C0C67
:100860009D1CAE1CBF1C880C991CAA1CBB1C2D8196
:100870003E814F815885281939094A095B09AAE642
:10088000B8E10E94A50597FD0DC0660F771F881F70
:10089000991F29813A814B815C810E94640549013D
:1008A0005A010CC029813A814B815C810E94640508
:1008B00049015A01880C991CAA1CBB1C9927B7FC3A
:1008C0009A958B2D7A2D692D9B01AC010E945405C0
:1008D0009B01AC01AEEDBBE00E94A5056C01FF24BD
:1008E000D7FCF094EF2CA3E4B3EEA50194010E9491
:1008F000B305BB2797FDB095AB2FC80ED91EEA1ED6
:10090000FB1EBFECCB0EBEE0DB1EE11CF11C64E065
:10091000F594E794D794C7946A95D1F7C80CD91C7D
:10092000EA1CFB1CE989FA89C082D182E282F38247
:1009300064960FB6F894DEBF0FBECDBFDF91CF91A6
:100940001F910F91FF90EF90DF90CF90BF90AF90ED
:100950009F908F907F906F905F904F903F902F90DF
:1009600008950E94C70620E836EE45EC57E40E9441
:100970002C0622E63BED42E45EE30E94B6079B01B3
:10098000AC0160E070E080E89FE30E94C70520E0D2
:100990003AE24DE257E40E94530720E030E040E2A3
:1009A00051E40E9453070E9402080E949406089591
:1009B000CF93DF93CDB7DEB729970FB6F894DEBF9C
:1009C0000FBECDBF1D821E821F82188619821A8219
:1009D0001B821C8219860E94A5000E94D100CE01B4
:1009E00009960E94C4018AE0482E512C612C712C7A
:1009F0009EE0A92E91E0B92E25E3C22E21E0D22E51
:100A000037E4E32E31E0F32E08E511E0AE01475F55
:100A10005F4FBE016F5F7F4FCE0105960E940003BE
:100A20006D817E818F819885A30192010E94860548
:100A30005F934F933F932F93BF92AF920E945609BB
:100A40008C818F938B818F938A818F9389818F93F0
:100A5000DF92CF920E94560969817A818B819C81B5
:100A60000E94B104A30192010E9486055F934F93F7
:100A70003F932F93FF92EF920E94560989851F9210
:100A80008F931F930F930E9456092FEF83ED90E3EE
:100A9000215080409040E1F700C000000FB6F8946C
:100AA000DEBF0FBECDBFB2CFDB018F939F930E94FD
:100AB000A505BF91AF91A29F800D911DA39F900DA1
:100AC000B29F900D11240895A1E21A2EAA1BBB1B00
:100AD000FD010DC0AA1FBB1FEE1FFF1FA217B3070A
:100AE000E407F50720F0A21BB30BE40BF50B661F20
:100AF000771F881F991F1A9469F7609570958095E4
:100B000090959B01AC01BD01CF010895052E97FB87
:100B10001EF400940E949D0557FD07D00E946405B5
:100B200007FC03D04EF40C949D05509540953095EC
:100B300021953F4F4F4F5F4F089590958095709549
:100B400061957F4F8F4F9F4F08950E94B805A59FD5
:100B5000900DB49F900DA49F800D911D11240895B8
:100B6000B7FF0C94A5050E94A505821B930B089561
:100B7000A29FB001B39FC001A39F700D811D1124DE
:100B8000911DB29F700D811D1124911D0895505823
:100B9000BB27AA270ED04DC13ED130F043D120F063
:100BA00031F49F3F11F41EF433C10EF4E095E7FBDE
:100BB00029C1E92F4FD180F3BA1762077307840761
:100BC000950718F071F49EF567C10EF4E0950B2EB1
:100BD000BA2FA02D0B01B90190010C01CA01A0018F
:100BE0001124FF27591B99F0593F50F4503E68F1EA
:100BF0001A16F040A22F232F342F4427585FF3CF2B
:100C0000469537952795A795F0405395C9F77EF4FB
:100C10001F16BA0B620B730B840BBAF09150A1F044
:100C2000FF0FBB1F661F771F881FC2F70EC0BA0FCA
:100C3000621F731F841F48F4879577956795B79552
:100C4000F7959E3F08F0B3CF9395880F08F099274A
:100C5000EE0F9795879508950CD0EBC0E3D040F048
:100C6000DAD030F021F45F3F19F0CCC0511115C13A
:100C7000CFC0F0D098F39923C9F35523B1F3951B56
:100C8000550BBB27AA2762177307840738F09F5FAD
:100C90005F4F220F331F441FAA1FA9F333D00E2E1C
:100CA0003AF0E0E830D091505040E695001CCAF789
:100CB00029D0FE2F27D0660F771F881FBB1F26174E
:100CC00037074807AB07B0E809F0BB0B802DBF0121
:100CD000FF2793585F4F2AF09E3F510568F092C05E
:100CE000DCC05F3FECF3983EDCF386957795679523
:100CF000B795F7959F5FC9F7880F911D96958795D2
:100D000097F90895E1E0660F771F881FBB1F6217F0
:100D100073078407BA0720F0621B730B840BBA0BAE
:100D2000EE1F88F7E095089504D06894B111B5C01E
:100D3000089598D088F09F5790F0B92F9927B75110
:100D4000A0F0D1F0660F771F881F991F1AF0BA958F
:100D5000C9F712C0B13081F09FD0B1E008959CC0B6
:100D6000672F782F8827B85F39F0B93FCCF3869585
:100D700077956795B395D9F73EF4909580957095E2
:100D800061957F4F8F4F9F4F0895E89409C097FB5F
:100D90003EF490958095709561957F4F8F4F9F4F52
:100DA0009923A9F0F92F96E9BB279395F695879596
:100DB00077956795B795F111F8CFFAF4BB0F11F459
:100DC00060FF1BC06F5F7F4F8F4F9F4F16C0882300
:100DD00011F096E911C0772321F09EE8872F762F36
:100DE00005C0662371F096E8862F70E060E02AF077
:100DF0009A95660F771F881FDAF7880F9695879563
:100E000097F9089597F99F6780E870E060E008958A
:100E10009FEF80EC089500240A9416161706180612
:100E20000906089500240A941216130614060506EE
:100E30000895092E0394000C11F4882352F0BB0F7F
:100E400040F4BF2B11F460FF04C06F5F7F4F8F4FE2
:100E50009F4F089557FD9058440F551F59F05F3F1D
:100E600071F04795880F97FB991F61F09F3F79F0CC
:100E700087950895121613061406551FF2CF46954E
:100E8000F1DF08C0161617061806991FF1CF8695D0
:100E90007105610508940895E894BB2766277727B4
:100EA000CB0197F908950BD0C4CFB5DF28F0BADF96
:100EB00018F0952309F0A6CFABCF1124EECFCADFEF
:100EC000A0F3959FD1F3950F50E0551F629FF0015D
:100ED000729FBB27F00DB11D639FAA27F00DB11DB6
:100EE000AA1F649F6627B00DA11D661F829F22273F
:100EF000B00DA11D621F739FB00DA11D621F839FC6
:100F0000A00D611D221F749F3327A00D611D231F9B
:100F1000849F600D211D822F762F6A2F11249F57E9
:100F200050408AF0E1F088234AF0EE0FFF1FBB1F0C
:100F3000661F771F881F91505040A9F79E3F5105AB
:100F400070F060CFAACF5F3FECF3983EDCF386955C
:100F500077956795B795F795E7959F5FC1F7FE2B56
:100F6000880F911D9695879597F90895FA01EE0FD0
:100F7000FF1F30962105310599F16115710561F466
:100F80008038BFE39B0749F168949038810561F090
:100F90008038BFEF9B0741F0992342F5FF3FE10501
:100FA0003105210511F1E8940894E795D901AA23A8
:100FB00029F4AB2FBE2FF85FD0F310C0FF5F70F4A1
:100FC000A695E0F7F73950F019F0FF3A38F49F771B
:100FD0009F930CD00F9007FC905808953EF018CFC7
:100FE00060E070E080E89FE308954FE79F775F93AC
:100FF0004F933F932F93E7D02F913F914F915F9164
:1010000052DF25C02FDFE0F09E37D8F09639B8F4D4
:101010009E3848F4672F782F8827985FF9CF8695F8
:101020007795679593959539D0F3B62FB1706B0F7F
:10103000711D811D20F4879577956795939533C031
:101040004DC02BCF19F40EF0DDCE26CFE1CE0ADF56
:10105000C8F39638C0F707F80F92E8942BE33AEA02
:1010600048EB5FE72EDF0F920F920F924DB75EB7FE
:101070000F92E9D0E8E6F0E03FD04F915F91EF9119
:10108000FF91E595EE1FFF1F49F0FE57E0684427EA
:10109000EE0F441FFA95E1F74195550B5BD00F9089
:1010A00007FE4FC00895882371F4772321F09850EC
:1010B000872B762F07C0662311F499270DC0905116
:1010C000862B70E060E02AF09A95660F771F881FE4
:1010D000DAF7880F9695879597F908959F3F31F035
:1010E000915020F4879577956795B795880F911D56
:1010F0009695879597F90895DF93CF931F930F9354
:10110000FF92EF92DF927B018C01689405C0DA2E8A
:10111000EF01D5DEFE01E894A59125913591459129
:101120005591AEF3EF0145DDFE019701A801DA9478
:1011300079F7DF90EF90FF900F911F91CF91DF91A2
:1011400008959B01AC0160E070E080E89FE384CDEE
:1011500059CEC4CF87DEE8F39923D9F3940F511DFC
:10116000BBF39150504094F059F0882332F0660F51
:10117000771F881F91505040C1F79E3F510544F79B
:10118000880F911D9695879597F908955F3FACF06C
:10119000983E9CF0BB27869577956795B79508F4A0
:1011A000B1609395C1F7BB0F58F711F460FFE8CF1A
:1011B0006F5F7F4F8F4F9F4FE3CF6FCE0EF08ECF7D
:1011C00027CE68941FCE4EDEC8F39923D1F3C6F321
:1011D000DF93CF931F930F93FF92C92FDD278823AF
:1011E0002AF02197660F771F881FDAF720E030E09A
:1011F00040E85FEB9FE3883920F0803E30F0219695
:101200008F77C6DCE0E9F0E003C0C2DCEDEBF0E094
:1012100073DF8B01BE01EC01FB2E6F5771097595D1
:10122000771F880B990BB3DD28E132E741E35FE3D9
:1012300046DEAF2D9801AE01FF900F911F91CF9127
:10124000DF91B7DCF6CDFA01DC01AA0FBB1F9B01D1
:10125000AC01BF5728F422273327442750781FC0FA
:10126000B75188F4AB2F0024469537952795011C7C
:10127000A395D2F3002069F0220F331F441FB395CA
:10128000DAF30DD084CC61307105A0E88A07B94645
:1012900030F49B01AC016627772788279078309639
:1012A00021F020833183428353830895A0E0B0E08E
:1012B000ECE5F9E00C94F20BFE0135966191719129
:1012C000AF0180918801909189010E946A09E2E052
:1012D0000C940E0CACE0B0E0E0E7F9E00C94E20B0B
:1012E0007C016B018A01FC0117821682838181FFD8
:1012F000BDC1CE0101964C01F7019381F60193FD2A
:10130000859193FF81916F01882309F4ABC18532E8
:1013100039F493FD859193FF81916F01853229F412
:10132000B70190E00E94520BE7CF512C312C20E006
:101330002032A0F48B3269F030F4803259F08332DD
:1013400069F420612CC08D3239F0803339F421608A
:1013500026C02260246023C0286021C027FD27C04A
:1013600030ED380F3A3078F426FF06C0FAE05F9E81
:10137000300D1124532E13C08AE0389E300D1124F5
:10138000332E20620CC08E3221F426FD6BC1206406
:1013900006C08C3611F4206802C0883641F4F6018C
:1013A00093FD859193FF81916F018111C1CF982F9A
:1013B0009F7D9554933028F40C5F1F4FFFE3F98312
:1013C0000DC0833631F0833771F0833509F05BC08F
:1013D00022C0F801808189830E5F1F4F442443940B
:1013E000512C540115C03801F2E06F0E711CF80148
:1013F000A080B18026FF03C0652D70E002C06FEFB2
:101400007FEFC5012C870E94470B2C0183012C859F
:101410002F77222E17C03801F2E06F0E711CF801F1
:10142000A080B18026FF03C0652D70E002C06FEF81
:101430007FEFC5012C870E943C0B2C012C85206876
:10144000222E830123FC1BC0832D90E048165906F1
:10145000B0F4B70180E290E00E94520B3A94F4CFCE
:10146000F50127FC859127FE81915F01B70190E08E
:101470000E94520B31103A94F1E04F1A5108411476
:10148000510471F7E5C0843611F0893639F5F80159
:1014900027FF07C060817181828193810C5F1F4F9C
:1014A00008C060817181882777FD8095982F0E5F35
:1014B0001F4F2F76B22E97FF09C09095809570959B
:1014C00061957F4F8F4F9F4F2068B22E2AE030E00A
:1014D000A4010E94840BA82EA81844C0853729F4C3
:1014E0002F7EB22E2AE030E025C0F22FF97FBF2EEA
:1014F0008F36C1F018F4883579F0B4C0803719F010
:10150000883721F0AFC02F2F2061B22EB4FE0DC05E
:101510008B2D8460B82E09C024FF0AC09F2F9660CF
:10152000B92E06C028E030E005C020E130E002C05E
:1015300020E132E0F801B7FE07C06081718182814D
:1015400093810C5F1F4F06C06081718180E090E045
:101550000E5F1F4FA4010E94840BA82EA818FB2D1C
:10156000FF77BF2EB6FE0BC02B2D2E7FA51450F497
:10157000B4FE0AC0B2FC08C02B2D2E7E05C07A2C0A
:101580002B2D03C07A2C01C0752C24FF0DC0FE0149
:10159000EA0DF11D8081803311F4297E09C022FFFC
:1015A00006C07394739404C0822F867809F07394F4
:1015B00023FD13C020FF06C05A2C731418F4530CDB
:1015C0005718732C731468F4B70180E290E02C87ED
:1015D0000E94520B73942C85F5CF731410F43718B6
:1015E00001C0312C24FF12C0B70180E390E02C87AA
:1015F0000E94520B2C8522FF17C021FF03C088E5F3
:1016000090E002C088E790E0B7010CC0822F867896
:1016100059F021FD02C080E201C08BE227FD8DE27E
:10162000B70190E00E94520BA51438F4B70180E393
:1016300090E00E94520B5A94F7CFAA94F401EA0D5D
:10164000F11D8081B70190E00E94520BA110F5CFEF
:10165000332009F451CEB70180E290E00E94520B92
:101660003A94F6CFF7018681978102C08FEF9FEF02
:101670002C96E2E10C94FE0BFC0105906150704049
:101680000110D8F7809590958E0F9F1F0895FC014B
:101690006150704001900110D8F7809590958E0FA1
:1016A0009F1F08950F931F93CF93DF93182F092F38
:1016B000EB018B8181FD03C08FEF9FEF20C082FF84
:1016C00010C04E815F812C813D81421753077CF40D
:1016D000E881F9819F012F5F3F4F39832883108371
:1016E00006C0E885F985812F0995892B29F72E8178
:1016F0003F812F5F3F4F3F832E83812F902FDF91BC
:10170000CF911F910F910895FA01AA27283051F126
:10171000203181F1E8946F936E7F6E5F7F4F8F4F22
:101720009F4FAF4FB1E03ED0B4E03CD0670F781F81
:10173000891F9A1FA11D680F791F8A1F911DA11D66
:101740006A0F711D811D911DA11D20D009F468949F
:101750003F912AE0269F11243019305D3193DEF647
:10176000CF010895462F4770405D4193B3E00FD0FD
:10177000C9F7F6CF462F4F70405D4A3318F0495DE8
:1017800031FD4052419302D0A9F7EACFB4E0A695CB
:101790009795879577956795BA95C9F700976105ED
:1017A000710508959B01AC010A2E06945795479543
:1017B00037952795BA95C9F7620F731F841F951F38
:1017C000A01D08952F923F924F925F926F927F9249
:1017D0008F929F92AF92BF92CF92DF92EF92FF9241
:1017E0000F931F93CF93DF93CDB7DEB7CA1BDB0BED
:1017F0000FB6F894DEBF0FBECDBF09942A88398892
:1018000048885F846E847D848C849B84AA84B98498
:10181000C884DF80EE80FD800C811B81AA81B981A4
:10182000CE0FD11D0FB6F894DEBF0FBECDBFED01B8
:061830000895F894FFCFBB
:101836000000000200000000940000000000546553
:101846006D70657261747572653A20256C64202826
:10185600696E20646567726573732043656C63699E
:101866007573290A0050726573737572653A20257F
:101876006C642050610A00416C7469747564653A41
:1018860020256C64206D0A00476C6F62616C2065D0
:1018960072726F7220636F64653A2025640A0A00CB
:00000001FF
